{
  "_format": "hh-sol-artifact-1",
  "contractName": "FundraiserFactory",
  "sourceName": "contracts/FundraiserFactory.sol",
  "abi": [
    {
      "anonymous": false,
      "inputs": [
        {
          "indexed": true,
          "internalType": "contract Fundraiser",
          "name": "fundraiser",
          "type": "address"
        },
        {
          "indexed": true,
          "internalType": "address",
          "name": "owner",
          "type": "address"
        }
      ],
      "name": "FundraiserCreated",
      "type": "event"
    },
    {
      "inputs": [
        {
          "internalType": "string",
          "name": "name",
          "type": "string"
        },
        {
          "internalType": "string",
          "name": "url",
          "type": "string"
        },
        {
          "internalType": "string",
          "name": "imageURL",
          "type": "string"
        },
        {
          "internalType": "string",
          "name": "description",
          "type": "string"
        },
        {
          "internalType": "address payable",
          "name": "beneficiary",
          "type": "address"
        }
      ],
      "name": "createFundraiser",
      "outputs": [],
      "stateMutability": "nonpayable",
      "type": "function"
    },
    {
      "inputs": [
        {
          "internalType": "uint256",
          "name": "limit",
          "type": "uint256"
        },
        {
          "internalType": "uint256",
          "name": "offset",
          "type": "uint256"
        }
      ],
      "name": "fundraisers",
      "outputs": [
        {
          "internalType": "contract Fundraiser[]",
          "name": "coll",
          "type": "address[]"
        }
      ],
      "stateMutability": "view",
      "type": "function"
    },
    {
      "inputs": [],
      "name": "fundraisersCount",
      "outputs": [
        {
          "internalType": "uint256",
          "name": "",
          "type": "uint256"
        }
      ],
      "stateMutability": "view",
      "type": "function"
    },
    {
      "inputs": [
        {
          "internalType": "uint256",
          "name": "index",
          "type": "uint256"
        }
      ],
      "name": "getFundraiserAt",
      "outputs": [
        {
          "internalType": "contract Fundraiser",
          "name": "",
          "type": "address"
        }
      ],
      "stateMutability": "view",
      "type": "function"
    },
    {
      "inputs": [],
      "name": "storedData",
      "outputs": [
        {
          "internalType": "string",
          "name": "",
          "type": "string"
        }
      ],
      "stateMutability": "view",
      "type": "function"
    }
  ],
  "bytecode": "0x608060405234801561001057600080fd5b50612a4e806100206000396000f3fe60806040523480156200001157600080fd5b50600436106200005e5760003560e01c806311d752ad14620000635780632a1afcd91462000083578063704914f814620000a55780639d3b435514620000db578063d11574c414620000fd575b600080fd5b6200008160048036038101906200007b9190620006c0565b62000133565b005b6200008d6200023f565b6040516200009c91906200084d565b60405180910390f35b620000c36004803603810190620000bd9190620008ac565b620002d5565b604051620000d2919062000a1b565b60405180910390f35b620000e562000481565b604051620000f4919062000a50565b60405180910390f35b6200011b600480360381019062000115919062000a6d565b6200048d565b6040516200012a919062000ab0565b60405180910390f35b60008585858585336040516200014990620004d7565b6200015a9695949392919062000b03565b604051809103906000f08015801562000177573d6000803e3d6000fd5b5090506000819080600181540180825580915050600190039060005260206000200160009091909190916101000a81548173ffffffffffffffffffffffffffffffffffffffff021916908373ffffffffffffffffffffffffffffffffffffffff1602179055503373ffffffffffffffffffffffffffffffffffffffff168173ffffffffffffffffffffffffffffffffffffffff167fa2398daac0c8053a1e3c0280916c2ec6bc884f0959c27e639a4db829b7eabfb160405160405180910390a3505050505050565b600180546200024e9062000bbb565b80601f01602080910402602001604051908101604052809291908181526020018280546200027c9062000bbb565b8015620002cd5780601f10620002a157610100808354040283529160200191620002cd565b820191906000526020600020905b815481529060010190602001808311620002af57829003601f168201915b505050505081565b6060620002e162000481565b82111562000326576040517f08c379a00000000000000000000000000000000000000000000000000000000081526004016200031d9062000c40565b60405180910390fd5b6000826200033362000481565b6200033f919062000c91565b905083811062000350578362000352565b805b9050601481106200036557601462000367565b805b90508067ffffffffffffffff81111562000386576200038562000514565b5b604051908082528060200260200182016040528015620003b55781602001602082028036833780820191505090505b50915060005b81811015620004795760008185620003d4919062000ccc565b81548110620003e857620003e762000d07565b5b9060005260206000200160009054906101000a900473ffffffffffffffffffffffffffffffffffffffff1683828151811062000429576200042862000d07565b5b602002602001019073ffffffffffffffffffffffffffffffffffffffff16908173ffffffffffffffffffffffffffffffffffffffff16815250508080620004709062000d36565b915050620003bb565b505092915050565b60008080549050905090565b6000808281548110620004a557620004a462000d07565b5b9060005260206000200160009054906101000a900473ffffffffffffffffffffffffffffffffffffffff169050919050565b611c958062000d8483390190565b6000604051905090565b600080fd5b600080fd5b600080fd5b600080fd5b6000601f19601f8301169050919050565b7f4e487b7100000000000000000000000000000000000000000000000000000000600052604160045260246000fd5b6200054e8262000503565b810181811067ffffffffffffffff8211171562000570576200056f62000514565b5b80604052505050565b600062000585620004e5565b905062000593828262000543565b919050565b600067ffffffffffffffff821115620005b657620005b562000514565b5b620005c18262000503565b9050602081019050919050565b82818337600083830152505050565b6000620005f4620005ee8462000598565b62000579565b905082815260208101848484011115620006135762000612620004fe565b5b62000620848285620005ce565b509392505050565b600082601f83011262000640576200063f620004f9565b5b813562000652848260208601620005dd565b91505092915050565b600073ffffffffffffffffffffffffffffffffffffffff82169050919050565b600062000688826200065b565b9050919050565b6200069a816200067b565b8114620006a657600080fd5b50565b600081359050620006ba816200068f565b92915050565b600080600080600060a08688031215620006df57620006de620004ef565b5b600086013567ffffffffffffffff8111156200070057620006ff620004f4565b5b6200070e8882890162000628565b955050602086013567ffffffffffffffff811115620007325762000731620004f4565b5b620007408882890162000628565b945050604086013567ffffffffffffffff811115620007645762000763620004f4565b5b620007728882890162000628565b935050606086013567ffffffffffffffff811115620007965762000795620004f4565b5b620007a48882890162000628565b9250506080620007b788828901620006a9565b9150509295509295909350565b600081519050919050565b600082825260208201905092915050565b60005b8381101562000800578082015181840152602081019050620007e3565b60008484015250505050565b60006200081982620007c4565b620008258185620007cf565b935062000837818560208601620007e0565b620008428162000503565b840191505092915050565b600060208201905081810360008301526200086981846200080c565b905092915050565b6000819050919050565b620008868162000871565b81146200089257600080fd5b50565b600081359050620008a6816200087b565b92915050565b60008060408385031215620008c657620008c5620004ef565b5b6000620008d68582860162000895565b9250506020620008e98582860162000895565b9150509250929050565b600081519050919050565b600082825260208201905092915050565b6000819050602082019050919050565b6000819050919050565b60006200094a620009446200093e846200065b565b6200091f565b6200065b565b9050919050565b60006200095e8262000929565b9050919050565b6000620009728262000951565b9050919050565b620009848162000965565b82525050565b600062000998838362000979565b60208301905092915050565b6000602082019050919050565b6000620009be82620008f3565b620009ca8185620008fe565b9350620009d7836200090f565b8060005b8381101562000a0e578151620009f288826200098a565b9750620009ff83620009a4565b925050600181019050620009db565b5085935050505092915050565b6000602082019050818103600083015262000a378184620009b1565b905092915050565b62000a4a8162000871565b82525050565b600060208201905062000a67600083018462000a3f565b92915050565b60006020828403121562000a865762000a85620004ef565b5b600062000a968482850162000895565b91505092915050565b62000aaa8162000965565b82525050565b600060208201905062000ac7600083018462000a9f565b92915050565b62000ad8816200067b565b82525050565b600062000aeb826200065b565b9050919050565b62000afd8162000ade565b82525050565b600060c082019050818103600083015262000b1f81896200080c565b9050818103602083015262000b3581886200080c565b9050818103604083015262000b4b81876200080c565b9050818103606083015262000b6181866200080c565b905062000b72608083018562000acd565b62000b8160a083018462000af2565b979650505050505050565b7f4e487b7100000000000000000000000000000000000000000000000000000000600052602260045260246000fd5b6000600282049050600182168062000bd457607f821691505b60208210810362000bea5762000be962000b8c565b5b50919050565b7f6f6666736574206f7574206f6620626f756e6473000000000000000000000000600082015250565b600062000c28601483620007cf565b915062000c358262000bf0565b602082019050919050565b6000602082019050818103600083015262000c5b8162000c19565b9050919050565b7f4e487b7100000000000000000000000000000000000000000000000000000000600052601160045260246000fd5b600062000c9e8262000871565b915062000cab8362000871565b925082820390508181111562000cc65762000cc562000c62565b5b92915050565b600062000cd98262000871565b915062000ce68362000871565b925082820190508082111562000d015762000d0062000c62565b5b92915050565b7f4e487b7100000000000000000000000000000000000000000000000000000000600052603260045260246000fd5b600062000d438262000871565b91507fffffffffffffffffffffffffffffffffffffffffffffffffffffffffffffffff820362000d785762000d7762000c62565b5b60018201905091905056fe60806040526040518060400160405280600281526020017f6d65000000000000000000000000000000000000000000000000000000000000815250600290816200004a91906200058f565b506040518060400160405280600481526020017f6874747000000000000000000000000000000000000000000000000000000000815250600390816200009191906200058f565b506040518060400160405280600881526020017f6a756e6b2e706e6700000000000000000000000000000000000000000000000081525060049081620000d891906200058f565b506040518060400160405280600481526020017f7465737400000000000000000000000000000000000000000000000000000000815250600590816200011f91906200058f565b503480156200012d57600080fd5b5060405162001c9538038062001c95833981810160405281019062000153919062000884565b62000173620001676200024960201b60201c565b6200025160201b60201c565b85600290816200018491906200058f565b5084600390816200019691906200058f565b508360049081620001a891906200058f565b508260059081620001ba91906200058f565b5081600660006101000a81548173ffffffffffffffffffffffffffffffffffffffff021916908373ffffffffffffffffffffffffffffffffffffffff16021790555080600760006101000a81548173ffffffffffffffffffffffffffffffffffffffff021916908373ffffffffffffffffffffffffffffffffffffffff1602179055505050505050506200099c565b600033905090565b60008060009054906101000a900473ffffffffffffffffffffffffffffffffffffffff169050816000806101000a81548173ffffffffffffffffffffffffffffffffffffffff021916908373ffffffffffffffffffffffffffffffffffffffff1602179055508173ffffffffffffffffffffffffffffffffffffffff168173ffffffffffffffffffffffffffffffffffffffff167f8be0079c531659141344cd1fd0a4f28419497f9722a3daafe3b4186f6b6457e060405160405180910390a35050565b600081519050919050565b7f4e487b7100000000000000000000000000000000000000000000000000000000600052604160045260246000fd5b7f4e487b7100000000000000000000000000000000000000000000000000000000600052602260045260246000fd5b600060028204905060018216806200039757607f821691505b602082108103620003ad57620003ac6200034f565b5b50919050565b60008190508160005260206000209050919050565b60006020601f8301049050919050565b600082821b905092915050565b600060088302620004177fffffffffffffffffffffffffffffffffffffffffffffffffffffffffffffffff82620003d8565b620004238683620003d8565b95508019841693508086168417925050509392505050565b6000819050919050565b6000819050919050565b6000620004706200046a62000464846200043b565b62000445565b6200043b565b9050919050565b6000819050919050565b6200048c836200044f565b620004a46200049b8262000477565b848454620003e5565b825550505050565b600090565b620004bb620004ac565b620004c881848462000481565b505050565b5b81811015620004f057620004e4600082620004b1565b600181019050620004ce565b5050565b601f8211156200053f576200050981620003b3565b6200051484620003c8565b8101602085101562000524578190505b6200053c6200053385620003c8565b830182620004cd565b50505b505050565b600082821c905092915050565b6000620005646000198460080262000544565b1980831691505092915050565b60006200057f838362000551565b9150826002028217905092915050565b6200059a8262000315565b67ffffffffffffffff811115620005b657620005b562000320565b5b620005c282546200037e565b620005cf828285620004f4565b600060209050601f831160018114620006075760008415620005f2578287015190505b620005fe858262000571565b8655506200066e565b601f1984166200061786620003b3565b60005b8281101562000641578489015182556001820191506020850194506020810190506200061a565b868310156200066157848901516200065d601f89168262000551565b8355505b6001600288020188555050505b505050505050565b6000604051905090565b600080fd5b600080fd5b600080fd5b600080fd5b6000601f19601f8301169050919050565b620006b08262000694565b810181811067ffffffffffffffff82111715620006d257620006d162000320565b5b80604052505050565b6000620006e762000676565b9050620006f58282620006a5565b919050565b600067ffffffffffffffff82111562000718576200071762000320565b5b620007238262000694565b9050602081019050919050565b60005b838110156200075057808201518184015260208101905062000733565b60008484015250505050565b6000620007736200076d84620006fa565b620006db565b9050828152602081018484840111156200079257620007916200068f565b5b6200079f84828562000730565b509392505050565b600082601f830112620007bf57620007be6200068a565b5b8151620007d18482602086016200075c565b91505092915050565b600073ffffffffffffffffffffffffffffffffffffffff82169050919050565b60006200080782620007da565b9050919050565b6200081981620007fa565b81146200082557600080fd5b50565b60008151905062000839816200080e565b92915050565b60006200084c82620007da565b9050919050565b6200085e816200083f565b81146200086a57600080fd5b50565b6000815190506200087e8162000853565b92915050565b60008060008060008060c08789031215620008a457620008a362000680565b5b600087015167ffffffffffffffff811115620008c557620008c462000685565b5b620008d389828a01620007a7565b965050602087015167ffffffffffffffff811115620008f757620008f662000685565b5b6200090589828a01620007a7565b955050604087015167ffffffffffffffff81111562000929576200092862000685565b5b6200093789828a01620007a7565b945050606087015167ffffffffffffffff8111156200095b576200095a62000685565b5b6200096989828a01620007a7565b93505060806200097c89828a0162000828565b92505060a06200098f89828a016200086d565b9150509295509295509295565b6112e980620009ac6000396000f3fe6080604052600436106100f25760003560e01c80635600f04f1161008a578063b90497e011610059578063b90497e0146102b1578063de2ed893146102dc578063ed88c68e14610307578063f2fde38b14610311576100f2565b80635600f04f14610219578063715018a6146102445780637284e4161461025b5780638da5cb5b14610286576100f2565b80631c31f710116100c65780631c31f710146101835780631f522595146101ac57806338af3eed146101d75780633ccfd60b14610202576100f2565b80625c33e1146100f75780630180b97c1461010157806306fdde031461012c5780631a57f7b414610157575b600080fd5b6100ff61033a565b005b34801561010d57600080fd5b5061011661036f565b6040516101239190610d3b565b60405180910390f35b34801561013857600080fd5b506101416103b9565b60405161014e9190610de6565b60405180910390f35b34801561016357600080fd5b5061016c610447565b60405161017a929190610ec6565b60405180910390f35b34801561018f57600080fd5b506101aa60048036038101906101a59190610f60565b6105bc565b005b3480156101b857600080fd5b506101c161067c565b6040516101ce9190610d3b565b60405180910390f35b3480156101e357600080fd5b506101ec610682565b6040516101f99190610f9c565b60405180910390f35b34801561020e57600080fd5b506102176106a8565b005b34801561022557600080fd5b5061022e6107cc565b60405161023b9190610de6565b60405180910390f35b34801561025057600080fd5b5061025961085a565b005b34801561026757600080fd5b506102706108e2565b60405161027d9190610de6565b60405180910390f35b34801561029257600080fd5b5061029b610970565b6040516102a89190610fd8565b60405180910390f35b3480156102bd57600080fd5b506102c6610999565b6040516102d39190610de6565b60405180910390f35b3480156102e857600080fd5b506102f1610a27565b6040516102fe9190610d3b565b60405180910390f35b61030f610a2d565b005b34801561031d57600080fd5b506103386004803603810190610333919061101f565b610b49565b005b61034f34600854610c4090919063ffffffff16565b600881905550600960008154809291906103689061107b565b9190505550565b6000600160003373ffffffffffffffffffffffffffffffffffffffff1673ffffffffffffffffffffffffffffffffffffffff16815260200190815260200160002080549050905090565b600280546103c6906110f2565b80601f01602080910402602001604051908101604052809291908181526020018280546103f2906110f2565b801561043f5780601f106104145761010080835404028352916020019161043f565b820191906000526020600020905b81548152906001019060200180831161042257829003601f168201915b505050505081565b606080600061045461036f565b90508067ffffffffffffffff8111156104705761046f611123565b5b60405190808252806020026020018201604052801561049e5781602001602082028036833780820191505090505b5092508067ffffffffffffffff8111156104bb576104ba611123565b5b6040519080825280602002602001820160405280156104e95781602001602082028036833780820191505090505b50915060005b818110156105b6576000600160003373ffffffffffffffffffffffffffffffffffffffff1673ffffffffffffffffffffffffffffffffffffffff168152602001908152602001600020828154811061054a57610549611152565b5b90600052602060002090600202019050806000015485838151811061057257610571611152565b5b602002602001018181525050806001015484838151811061059657610595611152565b5b6020026020010181815250505080806105ae9061107b565b9150506104ef565b50509091565b6105c4610c56565b73ffffffffffffffffffffffffffffffffffffffff166105e2610970565b73ffffffffffffffffffffffffffffffffffffffff1614610638576040517f08c379a000000000000000000000000000000000000000000000000000000000815260040161062f906111cd565b60405180910390fd5b80600660006101000a81548173ffffffffffffffffffffffffffffffffffffffff021916908373ffffffffffffffffffffffffffffffffffffffff16021790555050565b60095481565b600660009054906101000a900473ffffffffffffffffffffffffffffffffffffffff1681565b6106b0610c56565b73ffffffffffffffffffffffffffffffffffffffff166106ce610970565b73ffffffffffffffffffffffffffffffffffffffff1614610724576040517f08c379a000000000000000000000000000000000000000000000000000000000815260040161071b906111cd565b60405180910390fd5b6000479050600660009054906101000a900473ffffffffffffffffffffffffffffffffffffffff1673ffffffffffffffffffffffffffffffffffffffff166108fc829081150290604051600060405180830381858888f19350505050158015610791573d6000803e3d6000fd5b507f5b6b431d4476a211bb7d41c20d1aab9ae2321deee0d20be3d9fc9b1093fa6e3d816040516107c19190610d3b565b60405180910390a150565b600380546107d9906110f2565b80601f0160208091040260200160405190810160405280929190818152602001828054610805906110f2565b80156108525780601f1061082757610100808354040283529160200191610852565b820191906000526020600020905b81548152906001019060200180831161083557829003601f168201915b505050505081565b610862610c56565b73ffffffffffffffffffffffffffffffffffffffff16610880610970565b73ffffffffffffffffffffffffffffffffffffffff16146108d6576040517f08c379a00000000000000000000000000000000000000000000000000000000081526004016108cd906111cd565b60405180910390fd5b6108e06000610c5e565b565b600580546108ef906110f2565b80601f016020809104026020016040519081016040528092919081815260200182805461091b906110f2565b80156109685780601f1061093d57610100808354040283529160200191610968565b820191906000526020600020905b81548152906001019060200180831161094b57829003601f168201915b505050505081565b60008060009054906101000a900473ffffffffffffffffffffffffffffffffffffffff16905090565b600480546109a6906110f2565b80601f01602080910402602001604051908101604052809291908181526020018280546109d2906110f2565b8015610a1f5780601f106109f457610100808354040283529160200191610a1f565b820191906000526020600020905b815481529060010190602001808311610a0257829003601f168201915b505050505081565b60085481565b60006040518060400160405280348152602001428152509050600160003373ffffffffffffffffffffffffffffffffffffffff1673ffffffffffffffffffffffffffffffffffffffff16815260200190815260200160002081908060018154018082558091505060019003906000526020600020906002020160009091909190915060008201518160000155602082015181600101555050610ada34600854610c4090919063ffffffff16565b60088190555060096000815480929190610af39061107b565b91905055503373ffffffffffffffffffffffffffffffffffffffff167f264f630d9efa0d07053a31163641d9fcc0adafc9d9e76f1c37c2ce3a558d2c5234604051610b3e9190610d3b565b60405180910390a250565b610b51610c56565b73ffffffffffffffffffffffffffffffffffffffff16610b6f610970565b73ffffffffffffffffffffffffffffffffffffffff1614610bc5576040517f08c379a0000000000000000000000000000000000000000000000000000000008152600401610bbc906111cd565b60405180910390fd5b600073ffffffffffffffffffffffffffffffffffffffff168173ffffffffffffffffffffffffffffffffffffffff1603610c34576040517f08c379a0000000000000000000000000000000000000000000000000000000008152600401610c2b9061125f565b60405180910390fd5b610c3d81610c5e565b50565b60008183610c4e919061127f565b905092915050565b600033905090565b60008060009054906101000a900473ffffffffffffffffffffffffffffffffffffffff169050816000806101000a81548173ffffffffffffffffffffffffffffffffffffffff021916908373ffffffffffffffffffffffffffffffffffffffff1602179055508173ffffffffffffffffffffffffffffffffffffffff168173ffffffffffffffffffffffffffffffffffffffff167f8be0079c531659141344cd1fd0a4f28419497f9722a3daafe3b4186f6b6457e060405160405180910390a35050565b6000819050919050565b610d3581610d22565b82525050565b6000602082019050610d506000830184610d2c565b92915050565b600081519050919050565b600082825260208201905092915050565b60005b83811015610d90578082015181840152602081019050610d75565b60008484015250505050565b6000601f19601f8301169050919050565b6000610db882610d56565b610dc28185610d61565b9350610dd2818560208601610d72565b610ddb81610d9c565b840191505092915050565b60006020820190508181036000830152610e008184610dad565b905092915050565b600081519050919050565b600082825260208201905092915050565b6000819050602082019050919050565b610e3d81610d22565b82525050565b6000610e4f8383610e34565b60208301905092915050565b6000602082019050919050565b6000610e7382610e08565b610e7d8185610e13565b9350610e8883610e24565b8060005b83811015610eb9578151610ea08882610e43565b9750610eab83610e5b565b925050600181019050610e8c565b5085935050505092915050565b60006040820190508181036000830152610ee08185610e68565b90508181036020830152610ef48184610e68565b90509392505050565b600080fd5b600073ffffffffffffffffffffffffffffffffffffffff82169050919050565b6000610f2d82610f02565b9050919050565b610f3d81610f22565b8114610f4857600080fd5b50565b600081359050610f5a81610f34565b92915050565b600060208284031215610f7657610f75610efd565b5b6000610f8484828501610f4b565b91505092915050565b610f9681610f22565b82525050565b6000602082019050610fb16000830184610f8d565b92915050565b6000610fc282610f02565b9050919050565b610fd281610fb7565b82525050565b6000602082019050610fed6000830184610fc9565b92915050565b610ffc81610fb7565b811461100757600080fd5b50565b60008135905061101981610ff3565b92915050565b60006020828403121561103557611034610efd565b5b60006110438482850161100a565b91505092915050565b7f4e487b7100000000000000000000000000000000000000000000000000000000600052601160045260246000fd5b600061108682610d22565b91507fffffffffffffffffffffffffffffffffffffffffffffffffffffffffffffffff82036110b8576110b761104c565b5b600182019050919050565b7f4e487b7100000000000000000000000000000000000000000000000000000000600052602260045260246000fd5b6000600282049050600182168061110a57607f821691505b60208210810361111d5761111c6110c3565b5b50919050565b7f4e487b7100000000000000000000000000000000000000000000000000000000600052604160045260246000fd5b7f4e487b7100000000000000000000000000000000000000000000000000000000600052603260045260246000fd5b7f4f776e61626c653a2063616c6c6572206973206e6f7420746865206f776e6572600082015250565b60006111b7602083610d61565b91506111c282611181565b602082019050919050565b600060208201905081810360008301526111e6816111aa565b9050919050565b7f4f776e61626c653a206e6577206f776e657220697320746865207a65726f206160008201527f6464726573730000000000000000000000000000000000000000000000000000602082015250565b6000611249602683610d61565b9150611254826111ed565b604082019050919050565b600060208201905081810360008301526112788161123c565b9050919050565b600061128a82610d22565b915061129583610d22565b92508282019050808211156112ad576112ac61104c565b5b9291505056fea264697066735822122063316a83a1ef290007863d7d381b55d620300111e96aa51a4a4cfd1db108ab8164736f6c63430008120033a264697066735822122090662621b8978dc85e2d02e70e6c8e3f23c7104f4955fa8cb15f1255df660cdc64736f6c63430008120033",
  "linkReferences": {},
  "deployedLinkReferences": {}
}